{
  "_format": "hh-sol-artifact-1",
  "contractName": "MultisigWallet",
  "sourceName": "contracts/MultisigWallet.sol",
  "abi": [
    {
      "inputs": [
        {
          "internalType": "uint256",
          "name": "_minNumOfSigners",
          "type": "uint256"
        }
      ],
      "stateMutability": "nonpayable",
      "type": "constructor"
    },
    {
      "anonymous": false,
      "inputs": [
        {
          "indexed": true,
          "internalType": "address",
          "name": "_to",
          "type": "address"
        },
        {
          "indexed": false,
          "internalType": "uint256",
          "name": "_amount",
          "type": "uint256"
        }
      ],
      "name": "EthSent",
      "type": "event"
    },
    {
      "anonymous": false,
      "inputs": [
        {
          "indexed": true,
          "internalType": "uint256",
          "name": "id",
          "type": "uint256"
        },
        {
          "indexed": true,
          "internalType": "address",
          "name": "_to",
          "type": "address"
        },
        {
          "indexed": false,
          "internalType": "uint256",
          "name": "_amount",
          "type": "uint256"
        }
      ],
      "name": "TransferProposed",
      "type": "event"
    },
    {
      "inputs": [
        {
          "internalType": "address",
          "name": "_signer",
          "type": "address"
        }
      ],
      "name": "addSigner",
      "outputs": [],
      "stateMutability": "nonpayable",
      "type": "function"
    },
    {
      "inputs": [],
      "name": "admin",
      "outputs": [
        {
          "internalType": "address",
          "name": "",
          "type": "address"
        }
      ],
      "stateMutability": "view",
      "type": "function"
    },
    {
      "inputs": [],
      "name": "deposit",
      "outputs": [],
      "stateMutability": "payable",
      "type": "function"
    },
    {
      "inputs": [],
      "name": "getEthBalance",
      "outputs": [
        {
          "internalType": "uint256",
          "name": "",
          "type": "uint256"
        }
      ],
      "stateMutability": "view",
      "type": "function"
    },
    {
      "inputs": [
        {
          "internalType": "uint256",
          "name": "",
          "type": "uint256"
        }
      ],
      "name": "isEthSent",
      "outputs": [
        {
          "internalType": "bool",
          "name": "",
          "type": "bool"
        }
      ],
      "stateMutability": "view",
      "type": "function"
    },
    {
      "inputs": [],
      "name": "minNumOfSigners",
      "outputs": [
        {
          "internalType": "uint256",
          "name": "",
          "type": "uint256"
        }
      ],
      "stateMutability": "view",
      "type": "function"
    },
    {
      "inputs": [
        {
          "internalType": "uint256",
          "name": "",
          "type": "uint256"
        }
      ],
      "name": "numberPeopleSigned",
      "outputs": [
        {
          "internalType": "uint256",
          "name": "",
          "type": "uint256"
        }
      ],
      "stateMutability": "view",
      "type": "function"
    },
    {
      "inputs": [
        {
          "internalType": "uint256",
          "name": "",
          "type": "uint256"
        },
        {
          "internalType": "uint256",
          "name": "",
          "type": "uint256"
        }
      ],
      "name": "peopleSigned",
      "outputs": [
        {
          "internalType": "address",
          "name": "",
          "type": "address"
        }
      ],
      "stateMutability": "view",
      "type": "function"
    },
    {
      "inputs": [
        {
          "internalType": "address payable",
          "name": "_to",
          "type": "address"
        },
        {
          "internalType": "uint256",
          "name": "amount",
          "type": "uint256"
        }
      ],
      "name": "proposeTranser",
      "outputs": [],
      "stateMutability": "nonpayable",
      "type": "function"
    },
    {
      "inputs": [
        {
          "internalType": "uint256",
          "name": "_id",
          "type": "uint256"
        }
      ],
      "name": "signTransfer",
      "outputs": [],
      "stateMutability": "nonpayable",
      "type": "function"
    },
    {
      "inputs": [
        {
          "internalType": "uint256",
          "name": "",
          "type": "uint256"
        }
      ],
      "name": "signers",
      "outputs": [
        {
          "internalType": "address",
          "name": "",
          "type": "address"
        }
      ],
      "stateMutability": "view",
      "type": "function"
    },
    {
      "inputs": [
        {
          "internalType": "uint256",
          "name": "",
          "type": "uint256"
        }
      ],
      "name": "transactions",
      "outputs": [
        {
          "internalType": "address payable",
          "name": "_to",
          "type": "address"
        },
        {
          "internalType": "uint256",
          "name": "_amount",
          "type": "uint256"
        }
      ],
      "stateMutability": "view",
      "type": "function"
    },
    {
      "inputs": [],
      "name": "txCount",
      "outputs": [
        {
          "internalType": "uint256",
          "name": "",
          "type": "uint256"
        }
      ],
      "stateMutability": "view",
      "type": "function"
    },
    {
      "stateMutability": "payable",
      "type": "receive"
    }
  ],
  "bytecode": "0x60806040523480156200001157600080fd5b506040516200197038038062001970833981810160405281019062000037919062000146565b336000806101000a81548173ffffffffffffffffffffffffffffffffffffffff021916908373ffffffffffffffffffffffffffffffffffffffff1602179055506002339080600181540180825580915050600190039060005260206000200160009091909190916101000a81548173ffffffffffffffffffffffffffffffffffffffff021916908373ffffffffffffffffffffffffffffffffffffffff160217905550600281101562000121576040517f08c379a0000000000000000000000000000000000000000000000000000000008152600401620001189062000199565b60405180910390fd5b80600181905550506200023f565b600081519050620001408162000225565b92915050565b6000602082840312156200015957600080fd5b600062000169848285016200012f565b91505092915050565b600062000181602983620001bb565b91506200018e82620001d6565b604082019050919050565b60006020820190508181036000830152620001b48162000172565b9050919050565b600082825260208201905092915050565b6000819050919050565b7f4e756d626572206f66207369676e657273207368616c6c206265206e6f206c6560008201527f7373207468616e20320000000000000000000000000000000000000000000000602082015250565b6200023081620001cc565b81146200023c57600080fd5b50565b611721806200024f6000396000f3fe6080604052600436106100c65760003560e01c806370ed0ada1161007f578063cd3c609c11610059578063cd3c609c146102ac578063d0e30db0146102d7578063eb12d61e146102e1578063f851a4401461030a576100cd565b806370ed0ada146102065780639ace38c214610231578063a32e15a11461026f576100cd565b8063032c70fc146100d257806318ce6d0f1461010f5780632079fb9a1461014c5780633969a6d3146101895780633c540687146101b25780634bb94d5a146101dd576100cd565b366100cd57005b600080fd5b3480156100de57600080fd5b506100f960048036038101906100f49190611004565b610335565b604051610106919061127f565b60405180910390f35b34801561011b57600080fd5b5061013660048036038101906101319190611004565b610355565b60405161014391906113da565b60405180910390f35b34801561015857600080fd5b50610173600480360381019061016e9190611004565b61036d565b604051610180919061123b565b60405180910390f35b34801561019557600080fd5b506101b060048036038101906101ab9190610fc8565b6103ac565b005b3480156101be57600080fd5b506101c761063e565b6040516101d491906113da565b60405180910390f35b3480156101e957600080fd5b5061020460048036038101906101ff9190611004565b610644565b005b34801561021257600080fd5b5061021b610a91565b60405161022891906113da565b60405180910390f35b34801561023d57600080fd5b5061025860048036038101906102539190611004565b610a9e565b604051610266929190611256565b60405180910390f35b34801561027b57600080fd5b506102966004803603810190610291919061102d565b610ae2565b6040516102a3919061123b565b60405180910390f35b3480156102b857600080fd5b506102c1610b30565b6040516102ce91906113da565b60405180910390f35b6102df610b36565b005b3480156102ed57600080fd5b5061030860048036038101906103039190610f9f565b610b38565b005b34801561031657600080fd5b5061031f610d40565b60405161032c919061123b565b60405180910390f35b60076020528060005260406000206000915054906101000a900460ff1681565b60056020528060005260406000206000915090505481565b6002818154811061037d57600080fd5b906000526020600020016000915054906101000a900473ffffffffffffffffffffffffffffffffffffffff1681565b60008054906101000a900473ffffffffffffffffffffffffffffffffffffffff1673ffffffffffffffffffffffffffffffffffffffff163373ffffffffffffffffffffffffffffffffffffffff161461043a576040517f08c379a0000000000000000000000000000000000000000000000000000000008152600401610431906112fa565b60405180910390fd5b600073ffffffffffffffffffffffffffffffffffffffff168273ffffffffffffffffffffffffffffffffffffffff1614156104aa576040517f08c379a00000000000000000000000000000000000000000000000000000000081526004016104a19061129a565b60405180910390fd5b600081116104ed576040517f08c379a00000000000000000000000000000000000000000000000000000000081526004016104e49061131a565b60405180910390fd5b80471015610530576040517f08c379a00000000000000000000000000000000000000000000000000000000081526004016105279061137a565b60405180910390fd5b6000600354905060405180604001604052808473ffffffffffffffffffffffffffffffffffffffff168152602001838152506004600083815260200190815260200160002060008201518160000160006101000a81548173ffffffffffffffffffffffffffffffffffffffff021916908373ffffffffffffffffffffffffffffffffffffffff160217905550602082015181600101559050506105d281610644565b600360008154809291906105e59061146b565b91905055508273ffffffffffffffffffffffffffffffffffffffff16817ff1da17db05ceecc1897f62be2ca8340c4b74c030153ae040e2d55fdec5e608178460405161063191906113da565b60405180910390a3505050565b60035481565b600080600280549050905060005b8181101561070e5760028181548110610694577f4e487b7100000000000000000000000000000000000000000000000000000000600052603260045260246000fd5b9060005260206000200160009054906101000a900473ffffffffffffffffffffffffffffffffffffffff1673ffffffffffffffffffffffffffffffffffffffff163373ffffffffffffffffffffffffffffffffffffffff1614156106fb576001925061070e565b80806107069061146b565b915050610652565b508161074f576040517f08c379a0000000000000000000000000000000000000000000000000000000008152600401610746906112ba565b60405180910390fd5b600015156007600085815260200190815260200160002060009054906101000a900460ff161515146107b6576040517f08c379a00000000000000000000000000000000000000000000000000000000081526004016107ad9061139a565b60405180910390fd5b600015156107c48433610d64565b151514610806576040517f08c379a00000000000000000000000000000000000000000000000000000000081526004016107fd906113ba565b60405180910390fd5b60015460056000858152602001908152602001600020541061085d576040517f08c379a00000000000000000000000000000000000000000000000000000000081526004016108549061133a565b60405180910390fd5b60066000848152602001908152602001600020339080600181540180825580915050600190039060005260206000200160009091909190916101000a81548173ffffffffffffffffffffffffffffffffffffffff021916908373ffffffffffffffffffffffffffffffffffffffff1602179055506005600084815260200190815260200160002060008154809291906108f59061146b565b9190505550600154600560008581526020019081526020016000205410610a8c57600460008481526020019081526020016000206001015447101561096f576040517f08c379a00000000000000000000000000000000000000000000000000000000081526004016109669061137a565b60405180910390fd5b6109c56004600085815260200190815260200160002060000160009054906101000a900473ffffffffffffffffffffffffffffffffffffffff166004600086815260200190815260200160002060010154610eac565b60016007600085815260200190815260200160002060006101000a81548160ff0219169083151502179055506004600084815260200190815260200160002060000160009054906101000a900473ffffffffffffffffffffffffffffffffffffffff1673ffffffffffffffffffffffffffffffffffffffff167f78f5cdad99320ec2ba57132d7dffb1d125775c823239e60ff5e9300fd4ac898c6004600086815260200190815260200160002060010154604051610a8391906113da565b60405180910390a25b505050565b6000804790508091505090565b60046020528060005260406000206000915090508060000160009054906101000a900473ffffffffffffffffffffffffffffffffffffffff16908060010154905082565b60066020528160005260406000208181548110610afe57600080fd5b906000526020600020016000915091509054906101000a900473ffffffffffffffffffffffffffffffffffffffff1681565b60015481565b565b60008054906101000a900473ffffffffffffffffffffffffffffffffffffffff1673ffffffffffffffffffffffffffffffffffffffff163373ffffffffffffffffffffffffffffffffffffffff1614610bc6576040517f08c379a0000000000000000000000000000000000000000000000000000000008152600401610bbd906112fa565b60405180910390fd5b600060028054905090506000805b82811015610c90578373ffffffffffffffffffffffffffffffffffffffff1660028281548110610c2d577f4e487b7100000000000000000000000000000000000000000000000000000000600052603260045260246000fd5b9060005260206000200160009054906101000a900473ffffffffffffffffffffffffffffffffffffffff1673ffffffffffffffffffffffffffffffffffffffff161415610c7d5760019150610c90565b8080610c889061146b565b915050610bd4565b506000151581151514610cd8576040517f08c379a0000000000000000000000000000000000000000000000000000000008152600401610ccf906112da565b60405180910390fd5b6002839080600181540180825580915050600190039060005260206000200160009091909190916101000a81548173ffffffffffffffffffffffffffffffffffffffff021916908373ffffffffffffffffffffffffffffffffffffffff160217905550505050565b60008054906101000a900473ffffffffffffffffffffffffffffffffffffffff1681565b60008060066000858152602001908152602001600020805480602002602001604051908101604052809291908181526020018280548015610dfa57602002820191906000526020600020905b8160009054906101000a900473ffffffffffffffffffffffffffffffffffffffff1673ffffffffffffffffffffffffffffffffffffffff1681526020019060010190808311610db0575b5050505050905060005b8151811015610e9f57818181518110610e46577f4e487b7100000000000000000000000000000000000000000000000000000000600052603260045260246000fd5b602002602001015173ffffffffffffffffffffffffffffffffffffffff168473ffffffffffffffffffffffffffffffffffffffff161415610e8c57600192505050610ea6565b8080610e979061146b565b915050610e04565b5060009150505b92915050565b6000808373ffffffffffffffffffffffffffffffffffffffff1683604051610ed390611226565b60006040518083038185875af1925050503d8060008114610f10576040519150601f19603f3d011682016040523d82523d6000602084013e610f15565b606091505b509150915081610f5a576040517f08c379a0000000000000000000000000000000000000000000000000000000008152600401610f519061135a565b60405180910390fd5b50505050565b600081359050610f6f816116a6565b92915050565b600081359050610f84816116bd565b92915050565b600081359050610f99816116d4565b92915050565b600060208284031215610fb157600080fd5b6000610fbf84828501610f60565b91505092915050565b60008060408385031215610fdb57600080fd5b6000610fe985828601610f75565b9250506020610ffa85828601610f8a565b9150509250929050565b60006020828403121561101657600080fd5b600061102484828501610f8a565b91505092915050565b6000806040838503121561104057600080fd5b600061104e85828601610f8a565b925050602061105f85828601610f8a565b9150509250929050565b61107281611423565b82525050565b61108181611411565b82525050565b61109081611435565b82525050565b60006110a3601c83611400565b91506110ae826114e3565b602082019050919050565b60006110c6601c83611400565b91506110d18261150c565b602082019050919050565b60006110e9601583611400565b91506110f482611535565b602082019050919050565b600061110c601883611400565b91506111178261155e565b602082019050919050565b600061112f601483611400565b915061113a82611587565b602082019050919050565b6000611152601283611400565b915061115d826115b0565b602082019050919050565b6000611175602183611400565b9150611180826115d9565b604082019050919050565b6000611198601583611400565b91506111a382611628565b602082019050919050565b60006111bb602083611400565b91506111c682611651565b602082019050919050565b60006111de6000836113f5565b91506111e98261167a565b600082019050919050565b6000611201601f83611400565b915061120c8261167d565b602082019050919050565b61122081611461565b82525050565b6000611231826111d1565b9150819050919050565b60006020820190506112506000830184611078565b92915050565b600060408201905061126b6000830185611069565b6112786020830184611217565b9392505050565b60006020820190506112946000830184611087565b92915050565b600060208201905081810360008301526112b381611096565b9050919050565b600060208201905081810360008301526112d3816110b9565b9050919050565b600060208201905081810360008301526112f3816110dc565b9050919050565b60006020820190508181036000830152611313816110ff565b9050919050565b6000602082019050818103600083015261133381611122565b9050919050565b6000602082019050818103600083015261135381611145565b9050919050565b6000602082019050818103600083015261137381611168565b9050919050565b600060208201905081810360008301526113938161118b565b9050919050565b600060208201905081810360008301526113b3816111ae565b9050919050565b600060208201905081810360008301526113d3816111f4565b9050919050565b60006020820190506113ef6000830184611217565b92915050565b600081905092915050565b600082825260208201905092915050565b600061141c82611441565b9050919050565b600061142e82611441565b9050919050565b60008115159050919050565b600073ffffffffffffffffffffffffffffffffffffffff82169050919050565b6000819050919050565b600061147682611461565b91507fffffffffffffffffffffffffffffffffffffffffffffffffffffffffffffffff8214156114a9576114a86114b4565b5b600182019050919050565b7f4e487b7100000000000000000000000000000000000000000000000000000000600052601160045260246000fd5b7f43616e6e6f742070617920746f20656d70747920616464726573732100000000600082015250565b7f4f6e6c792076616c6964207369676e657220697320616c6c6f77656400000000600082015250565b7f7369676e657220616c7265616479206578697374730000000000000000000000600082015250565b7f6d73672e73656e646572206d7573742062652061646d696e0000000000000000600082015250565b7f4174206c6561737420706179206f6e6520776569000000000000000000000000600082015250565b7f4e6f206e65656420746f207369676e2069740000000000000000000000000000600082015250565b7f4661696c656420746f2073656e6420657468657220746f20726563697069656e60008201527f7400000000000000000000000000000000000000000000000000000000000000602082015250565b7f496e73756666696369656e742062616c616e6365210000000000000000000000600082015250565b7f596f752063616e6e6f74207369676e6564207468652065787069726564207478600082015250565b50565b7f596f75206861766520616c7265616479207369676e6564207468697320747800600082015250565b6116af81611411565b81146116ba57600080fd5b50565b6116c681611423565b81146116d157600080fd5b50565b6116dd81611461565b81146116e857600080fd5b5056fea264697066735822122068ad425d04f6cfea8081e02056c6557b8c8118a1897cf1306744a4281ee0931864736f6c63430008040033",
  "linkReferences": {},
  "deployedLinkReferences": {}
}