{
  "_format": "hh-sol-artifact-1",
  "contractName": "MultisigWallet",
  "sourceName": "contracts/MultisigWallet.sol",
  "abi": [
    {
      "inputs": [
        {
          "internalType": "uint256",
          "name": "_minNumOfSigners",
          "type": "uint256"
        }
      ],
      "stateMutability": "nonpayable",
      "type": "constructor"
    },
    {
      "anonymous": false,
      "inputs": [
        {
          "indexed": true,
          "internalType": "address",
          "name": "_to",
          "type": "address"
        },
        {
          "indexed": false,
          "internalType": "uint256",
          "name": "_amount",
          "type": "uint256"
        }
      ],
      "name": "EthSent",
      "type": "event"
    },
    {
      "anonymous": false,
      "inputs": [
        {
          "indexed": true,
          "internalType": "uint256",
          "name": "id",
          "type": "uint256"
        },
        {
          "indexed": true,
          "internalType": "address",
          "name": "_to",
          "type": "address"
        },
        {
          "indexed": false,
          "internalType": "uint256",
          "name": "_amount",
          "type": "uint256"
        }
      ],
      "name": "TransferProposed",
      "type": "event"
    },
    {
      "inputs": [
        {
          "internalType": "address",
          "name": "_signer",
          "type": "address"
        }
      ],
      "name": "addSigner",
      "outputs": [],
      "stateMutability": "nonpayable",
      "type": "function"
    },
    {
      "inputs": [],
      "name": "admin",
      "outputs": [
        {
          "internalType": "address",
          "name": "",
          "type": "address"
        }
      ],
      "stateMutability": "view",
      "type": "function"
    },
    {
      "inputs": [],
      "name": "deposit",
      "outputs": [],
      "stateMutability": "payable",
      "type": "function"
    },
    {
      "inputs": [],
      "name": "getEthBalance",
      "outputs": [
        {
          "internalType": "uint256",
          "name": "",
          "type": "uint256"
        }
      ],
      "stateMutability": "view",
      "type": "function"
    },
    {
      "inputs": [
        {
          "internalType": "uint256",
          "name": "",
          "type": "uint256"
        }
      ],
      "name": "isEthSent",
      "outputs": [
        {
          "internalType": "bool",
          "name": "",
          "type": "bool"
        }
      ],
      "stateMutability": "view",
      "type": "function"
    },
    {
      "inputs": [],
      "name": "minNumOfSigners",
      "outputs": [
        {
          "internalType": "uint256",
          "name": "",
          "type": "uint256"
        }
      ],
      "stateMutability": "view",
      "type": "function"
    },
    {
      "inputs": [
        {
          "internalType": "uint256",
          "name": "",
          "type": "uint256"
        }
      ],
      "name": "numberPeopleSigned",
      "outputs": [
        {
          "internalType": "uint256",
          "name": "",
          "type": "uint256"
        }
      ],
      "stateMutability": "view",
      "type": "function"
    },
    {
      "inputs": [
        {
          "internalType": "uint256",
          "name": "",
          "type": "uint256"
        },
        {
          "internalType": "uint256",
          "name": "",
          "type": "uint256"
        }
      ],
      "name": "peopleSigned",
      "outputs": [
        {
          "internalType": "address",
          "name": "",
          "type": "address"
        }
      ],
      "stateMutability": "view",
      "type": "function"
    },
    {
      "inputs": [
        {
          "internalType": "address payable",
          "name": "_to",
          "type": "address"
        },
        {
          "internalType": "uint256",
          "name": "amount",
          "type": "uint256"
        }
      ],
      "name": "proposeTranser",
      "outputs": [],
      "stateMutability": "nonpayable",
      "type": "function"
    },
    {
      "inputs": [
        {
          "internalType": "uint256",
          "name": "_id",
          "type": "uint256"
        }
      ],
      "name": "signTransfer",
      "outputs": [],
      "stateMutability": "nonpayable",
      "type": "function"
    },
    {
      "inputs": [
        {
          "internalType": "uint256",
          "name": "",
          "type": "uint256"
        }
      ],
      "name": "signers",
      "outputs": [
        {
          "internalType": "address",
          "name": "",
          "type": "address"
        }
      ],
      "stateMutability": "view",
      "type": "function"
    },
    {
      "inputs": [
        {
          "internalType": "uint256",
          "name": "",
          "type": "uint256"
        }
      ],
      "name": "transactions",
      "outputs": [
        {
          "internalType": "address payable",
          "name": "_to",
          "type": "address"
        },
        {
          "internalType": "uint256",
          "name": "_amount",
          "type": "uint256"
        }
      ],
      "stateMutability": "view",
      "type": "function"
    },
    {
      "inputs": [],
      "name": "txCount",
      "outputs": [
        {
          "internalType": "uint256",
          "name": "",
          "type": "uint256"
        }
      ],
      "stateMutability": "view",
      "type": "function"
    },
    {
      "stateMutability": "payable",
      "type": "receive"
    }
  ],
  "bytecode": "0x60806040523480156200001157600080fd5b506040516200194d3803806200194d83398181016040528101906200003791906200016f565b336000806101000a81548173ffffffffffffffffffffffffffffffffffffffff021916908373ffffffffffffffffffffffffffffffffffffffff1602179055506002339080600181540180825580915050600190039060005260206000200160009091909190916101000a81548173ffffffffffffffffffffffffffffffffffffffff021916908373ffffffffffffffffffffffffffffffffffffffff160217905550600281101562000121576040517f08c379a0000000000000000000000000000000000000000000000000000000008152600401620001189062000228565b60405180910390fd5b80600181905550506200024a565b600080fd5b6000819050919050565b620001498162000134565b81146200015557600080fd5b50565b60008151905062000169816200013e565b92915050565b6000602082840312156200018857620001876200012f565b5b6000620001988482850162000158565b91505092915050565b600082825260208201905092915050565b7f4e756d626572206f66207369676e657273207368616c6c206265206e6f206c6560008201527f7373207468616e20320000000000000000000000000000000000000000000000602082015250565b600062000210602983620001a1565b91506200021d82620001b2565b604082019050919050565b60006020820190508181036000830152620002438162000201565b9050919050565b6116f3806200025a6000396000f3fe6080604052600436106100c65760003560e01c806370ed0ada1161007f578063cd3c609c11610059578063cd3c609c146102ac578063d0e30db0146102d7578063eb12d61e146102e1578063f851a4401461030a576100cd565b806370ed0ada146102065780639ace38c214610231578063a32e15a11461026f576100cd565b8063032c70fc146100d257806318ce6d0f1461010f5780632079fb9a1461014c5780633969a6d3146101895780633c540687146101b25780634bb94d5a146101dd576100cd565b366100cd57005b600080fd5b3480156100de57600080fd5b506100f960048036038101906100f49190610f29565b610335565b6040516101069190610f71565b60405180910390f35b34801561011b57600080fd5b5061013660048036038101906101319190610f29565b610355565b6040516101439190610f9b565b60405180910390f35b34801561015857600080fd5b50610173600480360381019061016e9190610f29565b61036d565b6040516101809190610ff7565b60405180910390f35b34801561019557600080fd5b506101b060048036038101906101ab9190611050565b6103ac565b005b3480156101be57600080fd5b506101c761063e565b6040516101d49190610f9b565b60405180910390f35b3480156101e957600080fd5b5061020460048036038101906101ff9190610f29565b610644565b005b34801561021257600080fd5b5061021b610a6b565b6040516102289190610f9b565b60405180910390f35b34801561023d57600080fd5b5061025860048036038101906102539190610f29565b610a78565b60405161026692919061109f565b60405180910390f35b34801561027b57600080fd5b50610296600480360381019061029191906110c8565b610abc565b6040516102a39190610ff7565b60405180910390f35b3480156102b857600080fd5b506102c1610b0a565b6040516102ce9190610f9b565b60405180910390f35b6102df610b10565b005b3480156102ed57600080fd5b5061030860048036038101906103039190611134565b610b12565b005b34801561031657600080fd5b5061031f610cf4565b60405161032c9190610ff7565b60405180910390f35b60076020528060005260406000206000915054906101000a900460ff1681565b60056020528060005260406000206000915090505481565b6002818154811061037d57600080fd5b906000526020600020016000915054906101000a900473ffffffffffffffffffffffffffffffffffffffff1681565b60008054906101000a900473ffffffffffffffffffffffffffffffffffffffff1673ffffffffffffffffffffffffffffffffffffffff163373ffffffffffffffffffffffffffffffffffffffff161461043a576040517f08c379a0000000000000000000000000000000000000000000000000000000008152600401610431906111be565b60405180910390fd5b600073ffffffffffffffffffffffffffffffffffffffff168273ffffffffffffffffffffffffffffffffffffffff1614156104aa576040517f08c379a00000000000000000000000000000000000000000000000000000000081526004016104a19061122a565b60405180910390fd5b600081116104ed576040517f08c379a00000000000000000000000000000000000000000000000000000000081526004016104e490611296565b60405180910390fd5b80471015610530576040517f08c379a000000000000000000000000000000000000000000000000000000000815260040161052790611302565b60405180910390fd5b6000600354905060405180604001604052808473ffffffffffffffffffffffffffffffffffffffff168152602001838152506004600083815260200190815260200160002060008201518160000160006101000a81548173ffffffffffffffffffffffffffffffffffffffff021916908373ffffffffffffffffffffffffffffffffffffffff160217905550602082015181600101559050506105d281610644565b600360008154809291906105e590611351565b91905055508273ffffffffffffffffffffffffffffffffffffffff16817ff1da17db05ceecc1897f62be2ca8340c4b74c030153ae040e2d55fdec5e60817846040516106319190610f9b565b60405180910390a3505050565b60035481565b600080600280549050905060005b818110156106e8576002818154811061066e5761066d61139a565b5b9060005260206000200160009054906101000a900473ffffffffffffffffffffffffffffffffffffffff1673ffffffffffffffffffffffffffffffffffffffff163373ffffffffffffffffffffffffffffffffffffffff1614156106d557600192506106e8565b80806106e090611351565b915050610652565b5081610729576040517f08c379a000000000000000000000000000000000000000000000000000000000815260040161072090611415565b60405180910390fd5b600015156007600085815260200190815260200160002060009054906101000a900460ff16151514610790576040517f08c379a000000000000000000000000000000000000000000000000000000000815260040161078790611481565b60405180910390fd5b6000151561079e8433610d18565b1515146107e0576040517f08c379a00000000000000000000000000000000000000000000000000000000081526004016107d7906114ed565b60405180910390fd5b600154600560008581526020019081526020016000205410610837576040517f08c379a000000000000000000000000000000000000000000000000000000000815260040161082e90611559565b60405180910390fd5b60066000848152602001908152602001600020339080600181540180825580915050600190039060005260206000200160009091909190916101000a81548173ffffffffffffffffffffffffffffffffffffffff021916908373ffffffffffffffffffffffffffffffffffffffff1602179055506005600084815260200190815260200160002060008154809291906108cf90611351565b9190505550600154600560008581526020019081526020016000205410610a66576004600084815260200190815260200160002060010154471015610949576040517f08c379a000000000000000000000000000000000000000000000000000000000815260040161094090611302565b60405180910390fd5b61099f6004600085815260200190815260200160002060000160009054906101000a900473ffffffffffffffffffffffffffffffffffffffff166004600086815260200190815260200160002060010154610e3a565b60016007600085815260200190815260200160002060006101000a81548160ff0219169083151502179055506004600084815260200190815260200160002060000160009054906101000a900473ffffffffffffffffffffffffffffffffffffffff1673ffffffffffffffffffffffffffffffffffffffff167f78f5cdad99320ec2ba57132d7dffb1d125775c823239e60ff5e9300fd4ac898c6004600086815260200190815260200160002060010154604051610a5d9190610f9b565b60405180910390a25b505050565b6000804790508091505090565b60046020528060005260406000206000915090508060000160009054906101000a900473ffffffffffffffffffffffffffffffffffffffff16908060010154905082565b60066020528160005260406000208181548110610ad857600080fd5b906000526020600020016000915091509054906101000a900473ffffffffffffffffffffffffffffffffffffffff1681565b60015481565b565b60008054906101000a900473ffffffffffffffffffffffffffffffffffffffff1673ffffffffffffffffffffffffffffffffffffffff163373ffffffffffffffffffffffffffffffffffffffff1614610ba0576040517f08c379a0000000000000000000000000000000000000000000000000000000008152600401610b97906111be565b60405180910390fd5b600060028054905090506000805b82811015610c44578373ffffffffffffffffffffffffffffffffffffffff1660028281548110610be157610be061139a565b5b9060005260206000200160009054906101000a900473ffffffffffffffffffffffffffffffffffffffff1673ffffffffffffffffffffffffffffffffffffffff161415610c315760019150610c44565b8080610c3c90611351565b915050610bae565b506000151581151514610c8c576040517f08c379a0000000000000000000000000000000000000000000000000000000008152600401610c83906115c5565b60405180910390fd5b6002839080600181540180825580915050600190039060005260206000200160009091909190916101000a81548173ffffffffffffffffffffffffffffffffffffffff021916908373ffffffffffffffffffffffffffffffffffffffff160217905550505050565b60008054906101000a900473ffffffffffffffffffffffffffffffffffffffff1681565b60008060066000858152602001908152602001600020805480602002602001604051908101604052809291908181526020018280548015610dae57602002820191906000526020600020905b8160009054906101000a900473ffffffffffffffffffffffffffffffffffffffff1673ffffffffffffffffffffffffffffffffffffffff1681526020019060010190808311610d64575b5050505050905060005b8151811015610e2d57818181518110610dd457610dd361139a565b5b602002602001015173ffffffffffffffffffffffffffffffffffffffff168473ffffffffffffffffffffffffffffffffffffffff161415610e1a57600192505050610e34565b8080610e2590611351565b915050610db8565b5060009150505b92915050565b6000808373ffffffffffffffffffffffffffffffffffffffff1683604051610e6190611616565b60006040518083038185875af1925050503d8060008114610e9e576040519150601f19603f3d011682016040523d82523d6000602084013e610ea3565b606091505b509150915081610ee8576040517f08c379a0000000000000000000000000000000000000000000000000000000008152600401610edf9061169d565b60405180910390fd5b50505050565b600080fd5b6000819050919050565b610f0681610ef3565b8114610f1157600080fd5b50565b600081359050610f2381610efd565b92915050565b600060208284031215610f3f57610f3e610eee565b5b6000610f4d84828501610f14565b91505092915050565b60008115159050919050565b610f6b81610f56565b82525050565b6000602082019050610f866000830184610f62565b92915050565b610f9581610ef3565b82525050565b6000602082019050610fb06000830184610f8c565b92915050565b600073ffffffffffffffffffffffffffffffffffffffff82169050919050565b6000610fe182610fb6565b9050919050565b610ff181610fd6565b82525050565b600060208201905061100c6000830184610fe8565b92915050565b600061101d82610fb6565b9050919050565b61102d81611012565b811461103857600080fd5b50565b60008135905061104a81611024565b92915050565b6000806040838503121561106757611066610eee565b5b60006110758582860161103b565b925050602061108685828601610f14565b9150509250929050565b61109981611012565b82525050565b60006040820190506110b46000830185611090565b6110c16020830184610f8c565b9392505050565b600080604083850312156110df576110de610eee565b5b60006110ed85828601610f14565b92505060206110fe85828601610f14565b9150509250929050565b61111181610fd6565b811461111c57600080fd5b50565b60008135905061112e81611108565b92915050565b60006020828403121561114a57611149610eee565b5b60006111588482850161111f565b91505092915050565b600082825260208201905092915050565b7f6d73672e73656e646572206d7573742062652061646d696e0000000000000000600082015250565b60006111a8601883611161565b91506111b382611172565b602082019050919050565b600060208201905081810360008301526111d78161119b565b9050919050565b7f43616e6e6f742070617920746f20656d70747920616464726573732100000000600082015250565b6000611214601c83611161565b915061121f826111de565b602082019050919050565b6000602082019050818103600083015261124381611207565b9050919050565b7f4174206c6561737420706179206f6e6520776569000000000000000000000000600082015250565b6000611280601483611161565b915061128b8261124a565b602082019050919050565b600060208201905081810360008301526112af81611273565b9050919050565b7f496e73756666696369656e742062616c616e6365210000000000000000000000600082015250565b60006112ec601583611161565b91506112f7826112b6565b602082019050919050565b6000602082019050818103600083015261131b816112df565b9050919050565b7f4e487b7100000000000000000000000000000000000000000000000000000000600052601160045260246000fd5b600061135c82610ef3565b91507fffffffffffffffffffffffffffffffffffffffffffffffffffffffffffffffff82141561138f5761138e611322565b5b600182019050919050565b7f4e487b7100000000000000000000000000000000000000000000000000000000600052603260045260246000fd5b7f4f6e6c792076616c6964207369676e657220697320616c6c6f77656400000000600082015250565b60006113ff601c83611161565b915061140a826113c9565b602082019050919050565b6000602082019050818103600083015261142e816113f2565b9050919050565b7f596f752063616e6e6f74207369676e6564207468652065787069726564207478600082015250565b600061146b602083611161565b915061147682611435565b602082019050919050565b6000602082019050818103600083015261149a8161145e565b9050919050565b7f596f75206861766520616c7265616479207369676e6564207468697320747800600082015250565b60006114d7601f83611161565b91506114e2826114a1565b602082019050919050565b60006020820190508181036000830152611506816114ca565b9050919050565b7f4e6f206e65656420746f207369676e2069740000000000000000000000000000600082015250565b6000611543601283611161565b915061154e8261150d565b602082019050919050565b6000602082019050818103600083015261157281611536565b9050919050565b7f7369676e657220616c7265616479206578697374730000000000000000000000600082015250565b60006115af601583611161565b91506115ba82611579565b602082019050919050565b600060208201905081810360008301526115de816115a2565b9050919050565b600081905092915050565b50565b60006116006000836115e5565b915061160b826115f0565b600082019050919050565b6000611621826115f3565b9150819050919050565b7f4661696c656420746f2073656e6420657468657220746f20726563697069656e60008201527f7400000000000000000000000000000000000000000000000000000000000000602082015250565b6000611687602183611161565b91506116928261162b565b604082019050919050565b600060208201905081810360008301526116b68161167a565b905091905056fea2646970667358221220ee3257c98aaab0a135aee8861b5c9918bc7f8c4fc80dc188ec89ab3cef7d6f9c64736f6c634300080a0033",
  "linkReferences": {},
  "deployedLinkReferences": {}
}